{
  "transactions": [
    {
      "hash": "0x18f984316d8495b9c6f3798a336b8b3f581278dc5d65b98abe09e0ef7bf5ad23",
      "transactionType": "CREATE",
      "contractName": "Counter",
      "contractAddress": "0x2fB65eF7B817E84B51Ab8f9cCb0d49A83cf9d6AA",
      "function": null,
      "arguments": [
        "(0, false)"
      ],
      "transaction": {
        "type": "0x02",
        "from": "0xf39fd6e51aad88f6f4ce6ab8827279cfffb92266",
        "gas": "0x5877c",
        "value": "0x0",
        "data": "0x608060405234801561001057600080fd5b506040516104ae3803806104ae83398101604081905261002f91610038565b516000556100a0565b60006040828403121561004a57600080fd5b604080519081016001600160401b038111828210171561007a57634e487b7160e01b600052604160045260246000fd5b604052825181526020830151801515811461009457600080fd5b60208201529392505050565b6103ff806100af6000396000f3fe608060405234801561001057600080fd5b50600436106100625760003560e01c806308c3aa9114610067578063393834081461007d5780636c19f3b1146100905780638381f58a146100a3578063d3227572146100be578063d8f414c5146100d1575b600080fd5b61007b6100753660046101b8565b51600055565b005b61007b61008b366004610221565b6100e4565b61007b61009e366004610296565b610101565b6100ac60005481565b60405190815260200160405180910390f35b61007b6100cc3660046102c6565b61014b565b61007b6100df3660046102df565b610164565b818190506000808282546100f89190610358565b90915550505050565b600082600181111561011557610115610371565b03610136578060008082825461012b9190610358565b909155506101479050565b806000808282546100f89190610387565b5050565b8060008082825461015c9190610358565b909155505050565b60005b818110156101b3578282828181106101815761018161039a565b9050604002016000013560008082825461019b9190610358565b909155508190506101ab816103b0565b915050610167565b505050565b6000604082840312156101ca57600080fd5b6040516040810181811067ffffffffffffffff821117156101fb57634e487b7160e01b600052604160045260246000fd5b604052823581526020830135801515811461021557600080fd5b60208201529392505050565b6000806020838503121561023457600080fd5b823567ffffffffffffffff8082111561024c57600080fd5b818501915085601f83011261026057600080fd5b81358181111561026f57600080fd5b8660208260051b850101111561028457600080fd5b60209290920196919550909350505050565b600080604083850312156102a957600080fd5b8235600281106102b857600080fd5b946020939093013593505050565b6000602082840312156102d857600080fd5b5035919050565b600080602083850312156102f257600080fd5b823567ffffffffffffffff8082111561030a57600080fd5b818501915085601f83011261031e57600080fd5b81358181111561032d57600080fd5b8660208260061b850101111561028457600080fd5b634e487b7160e01b600052601160045260246000fd5b8082018082111561036b5761036b610342565b92915050565b634e487b7160e01b600052602160045260246000fd5b8181038181111561036b5761036b610342565b634e487b7160e01b600052603260045260246000fd5b6000600182016103c2576103c2610342565b506001019056fea2646970667358221220604671654051d585a2b6fff06c8e9fcf68d6e51a4f89c97c98671b25a67213c364736f6c6343000815003300000000000000000000000000000000000000000000000000000000000000000000000000000000000000000000000000000000000000000000000000000000",
        "nonce": "0x231f",
        "accessList": []
      },
      "additionalContracts": [],
      "isFixedGasLimit": false
    },
    {
      "hash": "0x84c3b45a7379567dd067211f89f8e07731e1034fa46e359901a248fff7ea9f3f",
      "transactionType": "CALL",
      "contractName": "Counter",
      "contractAddress": "0x2fB65eF7B817E84B51Ab8f9cCb0d49A83cf9d6AA",
      "function": "setNumber((uint256,bool))",
      "arguments": [
        "(1, false)"
      ],
      "transaction": {
        "type": "0x02",
        "from": "0xf39fd6e51aad88f6f4ce6ab8827279cfffb92266",
        "to": "0x2fb65ef7b817e84b51ab8f9ccb0d49a83cf9d6aa",
        "gas": "0xec16",
        "value": "0x0",
        "data": "0x08c3aa9100000000000000000000000000000000000000000000000000000000000000010000000000000000000000000000000000000000000000000000000000000000",
        "nonce": "0x2320",
        "accessList": []
      },
      "additionalContracts": [],
      "isFixedGasLimit": false
    },
    {
      "hash": "0x09a17d4a1521b72f80e176ae89eb171371e81b3a86ab8eb49b5e6b354b3dd600",
      "transactionType": "CALL",
      "contractName": "Counter",
      "contractAddress": "0x2fB65eF7B817E84B51Ab8f9cCb0d49A83cf9d6AA",
      "function": "increment(address[])",
      "arguments": [
        "[0x0000000000000000000000000000000000000000, 0x0000000000000000000000000000000000000000]"
      ],
      "transaction": {
        "type": "0x02",
        "from": "0xf39fd6e51aad88f6f4ce6ab8827279cfffb92266",
        "to": "0x2fb65ef7b817e84b51ab8f9ccb0d49a83cf9d6aa",
        "gas": "0x924e",
        "value": "0x0",
        "data": "0x393834080000000000000000000000000000000000000000000000000000000000000020000000000000000000000000000000000000000000000000000000000000000200000000000000000000000000000000000000000000000000000000000000000000000000000000000000000000000000000000000000000000000000000000",
        "nonce": "0x2321",
        "accessList": []
      },
      "additionalContracts": [],
      "isFixedGasLimit": false
    },
    {
      "hash": "0x24bd5661799a0787f5f17467667340748e1bdf384d0b91fe4dcee4bb66908c10",
      "transactionType": "CALL",
      "contractName": "Counter",
      "contractAddress": "0x2fB65eF7B817E84B51Ab8f9cCb0d49A83cf9d6AA",
      "function": "hereWeGo((uint256,bool)[])",
      "arguments": [
        "[(1, false), (2, false)]"
      ],
      "transaction": {
        "type": "0x02",
        "from": "0xf39fd6e51aad88f6f4ce6ab8827279cfffb92266",
        "to": "0x2fb65ef7b817e84b51ab8f9ccb0d49a83cf9d6aa",
        "gas": "0xa0c9",
        "value": "0x0",
        "data": "0xd8f414c5000000000000000000000000000000000000000000000000000000000000002000000000000000000000000000000000000000000000000000000000000000020000000000000000000000000000000000000000000000000000000000000001000000000000000000000000000000000000000000000000000000000000000000000000000000000000000000000000000000000000000000000000000000020000000000000000000000000000000000000000000000000000000000000000",
        "nonce": "0x2322",
        "accessList": []
      },
      "additionalContracts": [],
      "isFixedGasLimit": false
    },
    {
      "hash": "0xfabb025c15970c899b8c76f961b04b5294edcd5e8645d9555393f0c17350f42f",
      "transactionType": "CALL",
      "contractName": "Counter",
      "contractAddress": "0x2fB65eF7B817E84B51Ab8f9cCb0d49A83cf9d6AA",
      "function": "change(uint8,uint256)",
      "arguments": [
        "1",
        "1"
      ],
      "transaction": {
        "type": "0x02",
        "from": "0xf39fd6e51aad88f6f4ce6ab8827279cfffb92266",
        "to": "0x2fb65ef7b817e84b51ab8f9ccb0d49a83cf9d6aa",
        "gas": "0x9089",
        "value": "0x0",
        "data": "0x6c19f3b100000000000000000000000000000000000000000000000000000000000000010000000000000000000000000000000000000000000000000000000000000001",
        "nonce": "0x2323",
        "accessList": []
      },
      "additionalContracts": [],
      "isFixedGasLimit": false
    },
    {
      "hash": "0xd0643a0f6c409a3cdebd2f60cfc87fea6a6fda7f0e73d7dac4b2957a216a2396",
      "transactionType": "CREATE",
      "contractName": "CrazyInitializer",
      "contractAddress": "0xfc0daB187a2Da992773004C4460e3a076e9c1131",
      "function": null,
      "arguments": [
        "0",
        "[(1, false), (2, false)]"
      ],
      "transaction": {
        "type": "0x02",
        "from": "0xf39fd6e51aad88f6f4ce6ab8827279cfffb92266",
        "gas": "0x17dc7",
        "value": "0x0",
        "data": "0x608060405234801561001057600080fd5b506040516101e63803806101e683398101604081905261002f916100a4565b5050610199565b634e487b7160e01b600052604160045260246000fd5b604080519081016001600160401b038111828210171561006e5761006e610036565b60405290565b604051601f8201601f191681016001600160401b038111828210171561009c5761009c610036565b604052919050565b60008060408084860312156100b857600080fd5b8351600281106100c757600080fd5b602085810151919450906001600160401b03808211156100e657600080fd5b818701915087601f8301126100fa57600080fd5b81518181111561010c5761010c610036565b61011a848260051b01610074565b818152848101925060069190911b83018401908982111561013a57600080fd5b928401925b818410156101895785848b0312156101575760008081fd5b61015f61004c565b845181528585015180151581146101765760008081fd5b818701528352928501929184019161013f565b8096505050505050509250929050565b603f806101a76000396000f3fe6080604052600080fdfea264697066735822122093b08be50db3484f6d437d4ae04116e52e26e5d27e9b7c672709a815e1268a0a64736f6c634300081500330000000000000000000000000000000000000000000000000000000000000000000000000000000000000000000000000000000000000000000000000000004000000000000000000000000000000000000000000000000000000000000000020000000000000000000000000000000000000000000000000000000000000001000000000000000000000000000000000000000000000000000000000000000000000000000000000000000000000000000000000000000000000000000000020000000000000000000000000000000000000000000000000000000000000000",
        "nonce": "0x2324",
        "accessList": []
      },
      "additionalContracts": [],
      "isFixedGasLimit": false
    }
  ],
  "receipts": [
    {
      "transactionHash": "0x18f984316d8495b9c6f3798a336b8b3f581278dc5d65b98abe09e0ef7bf5ad23",
      "transactionIndex": "0x0",
      "blockHash": "0x33d0442cc13e141960331f5d0239c2955b87ac21171021bf82578634035126ed",
      "blockNumber": "0x9f960e",
      "from": "0xf39Fd6e51aad88F6F4ce6aB8827279cffFb92266",
      "to": null,
      "cumulativeGasUsed": "0x44126",
      "gasUsed": "0x44126",
      "contractAddress": "0x2fB65eF7B817E84B51Ab8f9cCb0d49A83cf9d6AA",
      "logs": [],
      "status": "0x1",
      "logsBloom": "0x00000000000000000000000000000000000000000000000000000000000000000000000000000000000000000000000000000000000000000000000000000000000000000000000000000000000000000000000000000000000000000000000000000000000000000000000000000000000000000000000000000000000000000000000000000000000000000000000000000000000000000000000000000000000000000000000000000000000000000000000000000000000000000000000000000000000000000000000000000000000000000000000000000000000000000000000000000000000000000000000000000000000000000000000000000000",
      "type": "0x2",
      "effectiveGasPrice": "0xb2d05e02"
    },
    {
      "transactionHash": "0x84c3b45a7379567dd067211f89f8e07731e1034fa46e359901a248fff7ea9f3f",
      "transactionIndex": "0x0",
      "blockHash": "0x7127eb6c212675008b85c767fb0867922ec1f549a335e2a6de41c8378e6812e5",
      "blockNumber": "0x9f960f",
      "from": "0xf39Fd6e51aad88F6F4ce6aB8827279cffFb92266",
      "to": "0x2fB65eF7B817E84B51Ab8f9cCb0d49A83cf9d6AA",
      "cumulativeGasUsed": "0xaaed",
      "gasUsed": "0xaaed",
      "contractAddress": null,
      "logs": [],
      "status": "0x1",
      "logsBloom": "0x00000000000000000000000000000000000000000000000000000000000000000000000000000000000000000000000000000000000000000000000000000000000000000000000000000000000000000000000000000000000000000000000000000000000000000000000000000000000000000000000000000000000000000000000000000000000000000000000000000000000000000000000000000000000000000000000000000000000000000000000000000000000000000000000000000000000000000000000000000000000000000000000000000000000000000000000000000000000000000000000000000000000000000000000000000000",
      "type": "0x2",
      "effectiveGasPrice": "0xb2d05e02"
    },
    {
      "transactionHash": "0x09a17d4a1521b72f80e176ae89eb171371e81b3a86ab8eb49b5e6b354b3dd600",
      "transactionIndex": "0x0",
      "blockHash": "0xb9962ae6392c97980574cfee04e3bcde2c9cb2dc0db67f103fda4ddec53c3e8b",
      "blockNumber": "0x9f9610",
      "from": "0xf39Fd6e51aad88F6F4ce6aB8827279cffFb92266",
      "to": "0x2fB65eF7B817E84B51Ab8f9cCb0d49A83cf9d6AA",
      "cumulativeGasUsed": "0x69ed",
      "gasUsed": "0x69ed",
      "contractAddress": null,
      "logs": [],
      "status": "0x1",
      "logsBloom": "0x00000000000000000000000000000000000000000000000000000000000000000000000000000000000000000000000000000000000000000000000000000000000000000000000000000000000000000000000000000000000000000000000000000000000000000000000000000000000000000000000000000000000000000000000000000000000000000000000000000000000000000000000000000000000000000000000000000000000000000000000000000000000000000000000000000000000000000000000000000000000000000000000000000000000000000000000000000000000000000000000000000000000000000000000000000000",
      "type": "0x2",
      "effectiveGasPrice": "0xb2d05e02"
    },
    {
      "transactionHash": "0x24bd5661799a0787f5f17467667340748e1bdf384d0b91fe4dcee4bb66908c10",
      "transactionIndex": "0x0",
      "blockHash": "0x07ca6e0a853bfdd7a2f3fdbc09fd3caf5d4f6ffdc9f5f6e4102f2b38b1450844",
      "blockNumber": "0x9f9611",
      "from": "0xf39Fd6e51aad88F6F4ce6aB8827279cffFb92266",
      "to": "0x2fB65eF7B817E84B51Ab8f9cCb0d49A83cf9d6AA",
      "cumulativeGasUsed": "0x6df1",
      "gasUsed": "0x6df1",
      "contractAddress": null,
      "logs": [],
      "status": "0x1",
      "logsBloom": "0x00000000000000000000000000000000000000000000000000000000000000000000000000000000000000000000000000000000000000000000000000000000000000000000000000000000000000000000000000000000000000000000000000000000000000000000000000000000000000000000000000000000000000000000000000000000000000000000000000000000000000000000000000000000000000000000000000000000000000000000000000000000000000000000000000000000000000000000000000000000000000000000000000000000000000000000000000000000000000000000000000000000000000000000000000000000",
      "type": "0x2",
      "effectiveGasPrice": "0xb2d05e02"
    },
    {
      "transactionHash": "0xfabb025c15970c899b8c76f961b04b5294edcd5e8645d9555393f0c17350f42f",
      "transactionIndex": "0x0",
      "blockHash": "0x56d421821d38db75159b39895e0093d18ae727f2fb795b8b3dc8abcadbbb67e2",
      "blockNumber": "0x9f9612",
      "from": "0xf39Fd6e51aad88F6F4ce6aB8827279cffFb92266",
      "to": "0x2fB65eF7B817E84B51Ab8f9cCb0d49A83cf9d6AA",
      "cumulativeGasUsed": "0x68a5",
      "gasUsed": "0x68a5",
      "contractAddress": null,
      "logs": [],
      "status": "0x1",
      "logsBloom": "0x00000000000000000000000000000000000000000000000000000000000000000000000000000000000000000000000000000000000000000000000000000000000000000000000000000000000000000000000000000000000000000000000000000000000000000000000000000000000000000000000000000000000000000000000000000000000000000000000000000000000000000000000000000000000000000000000000000000000000000000000000000000000000000000000000000000000000000000000000000000000000000000000000000000000000000000000000000000000000000000000000000000000000000000000000000000",
      "type": "0x2",
      "effectiveGasPrice": "0xb2d05e02"
    },
    {
      "transactionHash": "0xd0643a0f6c409a3cdebd2f60cfc87fea6a6fda7f0e73d7dac4b2957a216a2396",
      "transactionIndex": "0x0",
      "blockHash": "0x9d5041d0f1824ba7e161b7f23376acc7131cf5b69a6ed0b6ab69c37218631ecc",
      "blockNumber": "0x9f9613",
      "from": "0xf39Fd6e51aad88F6F4ce6aB8827279cffFb92266",
      "to": null,
      "cumulativeGasUsed": "0x125db",
      "gasUsed": "0x125db",
      "contractAddress": "0xfc0daB187a2Da992773004C4460e3a076e9c1131",
      "logs": [],
      "status": "0x1",
      "logsBloom": "0x00000000000000000000000000000000000000000000000000000000000000000000000000000000000000000000000000000000000000000000000000000000000000000000000000000000000000000000000000000000000000000000000000000000000000000000000000000000000000000000000000000000000000000000000000000000000000000000000000000000000000000000000000000000000000000000000000000000000000000000000000000000000000000000000000000000000000000000000000000000000000000000000000000000000000000000000000000000000000000000000000000000000000000000000000000000",
      "type": "0x2",
      "effectiveGasPrice": "0xb2d05e02"
    }
  ],
  "libraries": [],
  "pending": [],
  "returns": {},
  "timestamp": 1706647227,
  "chain": 5,
  "multi": false,
  "commit": "95cd537"
}