{
  "transactions": [
    {
      "hash": "0xd23e15e891b80027eefd2e00a9611e49106ead4727b9bce8a6083f902cd6d65c",
      "transactionType": "CREATE",
      "contractName": "Counter",
      "contractAddress": "0x564Db7a11653228164FD03BcA60465270E67b3d7",
      "function": null,
      "arguments": [
        "(0, false)"
      ],
      "transaction": {
        "type": "0x02",
        "from": "0xf39fd6e51aad88f6f4ce6ab8827279cfffb92266",
        "gas": "0x5877c",
        "value": "0x0",
        "data": "0x608060405234801561001057600080fd5b506040516104ae3803806104ae83398101604081905261002f91610038565b516000556100a0565b60006040828403121561004a57600080fd5b604080519081016001600160401b038111828210171561007a57634e487b7160e01b600052604160045260246000fd5b604052825181526020830151801515811461009457600080fd5b60208201529392505050565b6103ff806100af6000396000f3fe608060405234801561001057600080fd5b50600436106100625760003560e01c806308c3aa9114610067578063393834081461007d5780636c19f3b1146100905780638381f58a146100a3578063d3227572146100be578063d8f414c5146100d1575b600080fd5b61007b6100753660046101b8565b51600055565b005b61007b61008b366004610221565b6100e4565b61007b61009e366004610296565b610101565b6100ac60005481565b60405190815260200160405180910390f35b61007b6100cc3660046102c6565b61014b565b61007b6100df3660046102df565b610164565b818190506000808282546100f89190610358565b90915550505050565b600082600181111561011557610115610371565b03610136578060008082825461012b9190610358565b909155506101479050565b806000808282546100f89190610387565b5050565b8060008082825461015c9190610358565b909155505050565b60005b818110156101b3578282828181106101815761018161039a565b9050604002016000013560008082825461019b9190610358565b909155508190506101ab816103b0565b915050610167565b505050565b6000604082840312156101ca57600080fd5b6040516040810181811067ffffffffffffffff821117156101fb57634e487b7160e01b600052604160045260246000fd5b604052823581526020830135801515811461021557600080fd5b60208201529392505050565b6000806020838503121561023457600080fd5b823567ffffffffffffffff8082111561024c57600080fd5b818501915085601f83011261026057600080fd5b81358181111561026f57600080fd5b8660208260051b850101111561028457600080fd5b60209290920196919550909350505050565b600080604083850312156102a957600080fd5b8235600281106102b857600080fd5b946020939093013593505050565b6000602082840312156102d857600080fd5b5035919050565b600080602083850312156102f257600080fd5b823567ffffffffffffffff8082111561030a57600080fd5b818501915085601f83011261031e57600080fd5b81358181111561032d57600080fd5b8660208260061b850101111561028457600080fd5b634e487b7160e01b600052601160045260246000fd5b8082018082111561036b5761036b610342565b92915050565b634e487b7160e01b600052602160045260246000fd5b8181038181111561036b5761036b610342565b634e487b7160e01b600052603260045260246000fd5b6000600182016103c2576103c2610342565b506001019056fea2646970667358221220c7e52f8f2db003af798b2668ca8be079892f8e2e31fb61ba377bf6bca8e9f1e864736f6c6343000815003300000000000000000000000000000000000000000000000000000000000000000000000000000000000000000000000000000000000000000000000000000000",
        "nonce": "0x25e",
        "accessList": []
      },
      "additionalContracts": [],
      "isFixedGasLimit": false
    },
    {
      "hash": "0x993a93bc97784653b8e9219f77bfc5b97ccad1c137056a13c24f41dd71cc0539",
      "transactionType": "CALL",
      "contractName": "Counter",
      "contractAddress": "0x564Db7a11653228164FD03BcA60465270E67b3d7",
      "function": "setNumber((uint256,bool))",
      "arguments": [
        "(1, false)"
      ],
      "transaction": {
        "type": "0x02",
        "from": "0xf39fd6e51aad88f6f4ce6ab8827279cfffb92266",
        "to": "0x564db7a11653228164fd03bca60465270e67b3d7",
        "gas": "0xec16",
        "value": "0x0",
        "data": "0x08c3aa9100000000000000000000000000000000000000000000000000000000000000010000000000000000000000000000000000000000000000000000000000000000",
        "nonce": "0x25f",
        "accessList": []
      },
      "additionalContracts": [],
      "isFixedGasLimit": false
    },
    {
      "hash": "0xd125d6748f5cf0067d4373bf155b414287b4662c416e10bf12792d87af7dec3b",
      "transactionType": "CALL",
      "contractName": "Counter",
      "contractAddress": "0x564Db7a11653228164FD03BcA60465270E67b3d7",
      "function": "increment(address[])",
      "arguments": [
        "[0x0000000000000000000000000000000000000000, 0x0000000000000000000000000000000000000000]"
      ],
      "transaction": {
        "type": "0x02",
        "from": "0xf39fd6e51aad88f6f4ce6ab8827279cfffb92266",
        "to": "0x564db7a11653228164fd03bca60465270e67b3d7",
        "gas": "0x924e",
        "value": "0x0",
        "data": "0x393834080000000000000000000000000000000000000000000000000000000000000020000000000000000000000000000000000000000000000000000000000000000200000000000000000000000000000000000000000000000000000000000000000000000000000000000000000000000000000000000000000000000000000000",
        "nonce": "0x260",
        "accessList": []
      },
      "additionalContracts": [],
      "isFixedGasLimit": false
    },
    {
      "hash": "0xbffb9220ab0e7a99dee85f36ff9a12a1bc6d9c43456bf01e3589b5e620092082",
      "transactionType": "CALL",
      "contractName": "Counter",
      "contractAddress": "0x564Db7a11653228164FD03BcA60465270E67b3d7",
      "function": "hereWeGo((uint256,bool)[])",
      "arguments": [
        "[(1, false), (2, false)]"
      ],
      "transaction": {
        "type": "0x02",
        "from": "0xf39fd6e51aad88f6f4ce6ab8827279cfffb92266",
        "to": "0x564db7a11653228164fd03bca60465270e67b3d7",
        "gas": "0xa0c9",
        "value": "0x0",
        "data": "0xd8f414c5000000000000000000000000000000000000000000000000000000000000002000000000000000000000000000000000000000000000000000000000000000020000000000000000000000000000000000000000000000000000000000000001000000000000000000000000000000000000000000000000000000000000000000000000000000000000000000000000000000000000000000000000000000020000000000000000000000000000000000000000000000000000000000000000",
        "nonce": "0x261",
        "accessList": []
      },
      "additionalContracts": [],
      "isFixedGasLimit": false
    },
    {
      "hash": "0x9af785b94461630a05e60d7ad6b015be98d51ef85fde233012ea08f880d8b9b7",
      "transactionType": "CALL",
      "contractName": "Counter",
      "contractAddress": "0x564Db7a11653228164FD03BcA60465270E67b3d7",
      "function": "change(uint8,uint256)",
      "arguments": [
        "1",
        "1"
      ],
      "transaction": {
        "type": "0x02",
        "from": "0xf39fd6e51aad88f6f4ce6ab8827279cfffb92266",
        "to": "0x564db7a11653228164fd03bca60465270e67b3d7",
        "gas": "0x9089",
        "value": "0x0",
        "data": "0x6c19f3b100000000000000000000000000000000000000000000000000000000000000010000000000000000000000000000000000000000000000000000000000000001",
        "nonce": "0x262",
        "accessList": []
      },
      "additionalContracts": [],
      "isFixedGasLimit": false
    },
    {
      "hash": "0x522f2f20f63015f00d09809386705c0317f4997dc5825c2e5a59c01b5d052120",
      "transactionType": "CREATE",
      "contractName": "CrazyInitializer",
      "contractAddress": "0xEb0fCBB68Ca7Ba175Dc1D3dABFD618e7a3F582F6",
      "function": null,
      "arguments": [
        "0",
        "[(1, false), (2, false)]"
      ],
      "transaction": {
        "type": "0x02",
        "from": "0xf39fd6e51aad88f6f4ce6ab8827279cfffb92266",
        "gas": "0x17dc7",
        "value": "0x0",
        "data": "0x608060405234801561001057600080fd5b506040516101e63803806101e683398101604081905261002f916100a4565b5050610199565b634e487b7160e01b600052604160045260246000fd5b604080519081016001600160401b038111828210171561006e5761006e610036565b60405290565b604051601f8201601f191681016001600160401b038111828210171561009c5761009c610036565b604052919050565b60008060408084860312156100b857600080fd5b8351600281106100c757600080fd5b602085810151919450906001600160401b03808211156100e657600080fd5b818701915087601f8301126100fa57600080fd5b81518181111561010c5761010c610036565b61011a848260051b01610074565b818152848101925060069190911b83018401908982111561013a57600080fd5b928401925b818410156101895785848b0312156101575760008081fd5b61015f61004c565b845181528585015180151581146101765760008081fd5b818701528352928501929184019161013f565b8096505050505050509250929050565b603f806101a76000396000f3fe6080604052600080fdfea2646970667358221220cb91ce36d12e92b61f94aec56616ab4543eb0d958de449fea61fa5f035fe916d64736f6c634300081500330000000000000000000000000000000000000000000000000000000000000000000000000000000000000000000000000000000000000000000000000000004000000000000000000000000000000000000000000000000000000000000000020000000000000000000000000000000000000000000000000000000000000001000000000000000000000000000000000000000000000000000000000000000000000000000000000000000000000000000000000000000000000000000000020000000000000000000000000000000000000000000000000000000000000000",
        "nonce": "0x263",
        "accessList": []
      },
      "additionalContracts": [],
      "isFixedGasLimit": false
    }
  ],
  "receipts": [
    {
      "transactionHash": "0xd23e15e891b80027eefd2e00a9611e49106ead4727b9bce8a6083f902cd6d65c",
      "transactionIndex": "0x0",
      "blockHash": "0xaf6c460c8223be7915eec17110cf0b5dca666d2d3152deb63b995014c289341a",
      "blockNumber": "0x1235aa3",
      "from": "0xf39Fd6e51aad88F6F4ce6aB8827279cffFb92266",
      "to": null,
      "cumulativeGasUsed": "0x44126",
      "gasUsed": "0x44126",
      "contractAddress": "0x564Db7a11653228164FD03BcA60465270E67b3d7",
      "logs": [],
      "status": "0x1",
      "logsBloom": "0x00000000000000000000000000000000000000000000000000000000000000000000000000000000000000000000000000000000000000000000000000000000000000000000000000000000000000000000000000000000000000000000000000000000000000000000000000000000000000000000000000000000000000000000000000000000000000000000000000000000000000000000000000000000000000000000000000000000000000000000000000000000000000000000000000000000000000000000000000000000000000000000000000000000000000000000000000000000000000000000000000000000000000000000000000000000",
      "type": "0x2",
      "effectiveGasPrice": "0xb2d05e02"
    },
    {
      "transactionHash": "0x993a93bc97784653b8e9219f77bfc5b97ccad1c137056a13c24f41dd71cc0539",
      "transactionIndex": "0x0",
      "blockHash": "0x1aeffd73120b0dde20bf6d76b04bfebec97cca18f98292081ab279be8a370070",
      "blockNumber": "0x1235aa4",
      "from": "0xf39Fd6e51aad88F6F4ce6aB8827279cffFb92266",
      "to": "0x564Db7a11653228164FD03BcA60465270E67b3d7",
      "cumulativeGasUsed": "0xaaed",
      "gasUsed": "0xaaed",
      "contractAddress": null,
      "logs": [],
      "status": "0x1",
      "logsBloom": "0x00000000000000000000000000000000000000000000000000000000000000000000000000000000000000000000000000000000000000000000000000000000000000000000000000000000000000000000000000000000000000000000000000000000000000000000000000000000000000000000000000000000000000000000000000000000000000000000000000000000000000000000000000000000000000000000000000000000000000000000000000000000000000000000000000000000000000000000000000000000000000000000000000000000000000000000000000000000000000000000000000000000000000000000000000000000",
      "type": "0x2",
      "effectiveGasPrice": "0xb2d05e02"
    },
    {
      "transactionHash": "0xd125d6748f5cf0067d4373bf155b414287b4662c416e10bf12792d87af7dec3b",
      "transactionIndex": "0x0",
      "blockHash": "0x741f5065355629c9522ac27a7c1a5c59d7dbb668b93edfcf334269022713a8f9",
      "blockNumber": "0x1235aa5",
      "from": "0xf39Fd6e51aad88F6F4ce6aB8827279cffFb92266",
      "to": "0x564Db7a11653228164FD03BcA60465270E67b3d7",
      "cumulativeGasUsed": "0x69ed",
      "gasUsed": "0x69ed",
      "contractAddress": null,
      "logs": [],
      "status": "0x1",
      "logsBloom": "0x00000000000000000000000000000000000000000000000000000000000000000000000000000000000000000000000000000000000000000000000000000000000000000000000000000000000000000000000000000000000000000000000000000000000000000000000000000000000000000000000000000000000000000000000000000000000000000000000000000000000000000000000000000000000000000000000000000000000000000000000000000000000000000000000000000000000000000000000000000000000000000000000000000000000000000000000000000000000000000000000000000000000000000000000000000000",
      "type": "0x2",
      "effectiveGasPrice": "0xb2d05e02"
    },
    {
      "transactionHash": "0xbffb9220ab0e7a99dee85f36ff9a12a1bc6d9c43456bf01e3589b5e620092082",
      "transactionIndex": "0x0",
      "blockHash": "0x88203bc047c82ebb7310c2d5c412fff1796acd71181db1def15e0523e63b051a",
      "blockNumber": "0x1235aa6",
      "from": "0xf39Fd6e51aad88F6F4ce6aB8827279cffFb92266",
      "to": "0x564Db7a11653228164FD03BcA60465270E67b3d7",
      "cumulativeGasUsed": "0x6df1",
      "gasUsed": "0x6df1",
      "contractAddress": null,
      "logs": [],
      "status": "0x1",
      "logsBloom": "0x00000000000000000000000000000000000000000000000000000000000000000000000000000000000000000000000000000000000000000000000000000000000000000000000000000000000000000000000000000000000000000000000000000000000000000000000000000000000000000000000000000000000000000000000000000000000000000000000000000000000000000000000000000000000000000000000000000000000000000000000000000000000000000000000000000000000000000000000000000000000000000000000000000000000000000000000000000000000000000000000000000000000000000000000000000000",
      "type": "0x2",
      "effectiveGasPrice": "0xb2d05e02"
    },
    {
      "transactionHash": "0x9af785b94461630a05e60d7ad6b015be98d51ef85fde233012ea08f880d8b9b7",
      "transactionIndex": "0x0",
      "blockHash": "0x9b0f61ed106ac8bb6cd96971ae0e4340f47df77895ddc8e8a84a13fa71a48af9",
      "blockNumber": "0x1235aa7",
      "from": "0xf39Fd6e51aad88F6F4ce6aB8827279cffFb92266",
      "to": "0x564Db7a11653228164FD03BcA60465270E67b3d7",
      "cumulativeGasUsed": "0x68a5",
      "gasUsed": "0x68a5",
      "contractAddress": null,
      "logs": [],
      "status": "0x1",
      "logsBloom": "0x00000000000000000000000000000000000000000000000000000000000000000000000000000000000000000000000000000000000000000000000000000000000000000000000000000000000000000000000000000000000000000000000000000000000000000000000000000000000000000000000000000000000000000000000000000000000000000000000000000000000000000000000000000000000000000000000000000000000000000000000000000000000000000000000000000000000000000000000000000000000000000000000000000000000000000000000000000000000000000000000000000000000000000000000000000000",
      "type": "0x2",
      "effectiveGasPrice": "0xb2d05e02"
    },
    {
      "transactionHash": "0x522f2f20f63015f00d09809386705c0317f4997dc5825c2e5a59c01b5d052120",
      "transactionIndex": "0x0",
      "blockHash": "0x5fef1e662a6736a77e6c31f62dc71b8a07b491a72598ab858ab5e2bd164bb20a",
      "blockNumber": "0x1235aa8",
      "from": "0xf39Fd6e51aad88F6F4ce6aB8827279cffFb92266",
      "to": null,
      "cumulativeGasUsed": "0x125db",
      "gasUsed": "0x125db",
      "contractAddress": "0xEb0fCBB68Ca7Ba175Dc1D3dABFD618e7a3F582F6",
      "logs": [],
      "status": "0x1",
      "logsBloom": "0x00000000000000000000000000000000000000000000000000000000000000000000000000000000000000000000000000000000000000000000000000000000000000000000000000000000000000000000000000000000000000000000000000000000000000000000000000000000000000000000000000000000000000000000000000000000000000000000000000000000000000000000000000000000000000000000000000000000000000000000000000000000000000000000000000000000000000000000000000000000000000000000000000000000000000000000000000000000000000000000000000000000000000000000000000000000",
      "type": "0x2",
      "effectiveGasPrice": "0xb2d05e02"
    }
  ],
  "libraries": [],
  "pending": [],
  "returns": {},
  "timestamp": 1706313254,
  "chain": 1,
  "multi": false,
  "commit": "33fff34"
}